:020000040800F2
:10000000080900209D0100085B250008592500080B
:1000100000000000000000000000000000000000E0
:100020000000000000000000000000005F25000844
:1000300000000000000000005D25000861250008A8
:10004000AF010008AF010008AF010008AF010008D0
:10005000AF010008AF010008AF010008AF010008C0
:10006000AF010008AF010008AF0100084506000815
:10007000AF010008AF010008AF010008AF010008A0
:10008000AF010008AF010008AF010008AF01000890
:10009000AF010008AF010008AF010008AF01000880
:1000A000AF010008AF010008AF010008AF01000870
:1000B000AF010008AF010008AF010008AF01000860
:1000C00000F002F800F03EF80CA030C80838241800
:1000D0002D18671EA246AB4654465D46AC4201D180
:1000E00000F030F87E460F3EB6460FCC0126334274
:1000F00000D0FB1A3343A246AB461847103100002C
:1001000030310000103A02D378C878C1FAD85207CB
:1001100001D330C830C101D504680C6070470000BD
:100120000023002400250026103A01D378C1FBD813
:10013000520700D330C100D50B6070471FB51FBDFB
:1001400010B510BD00F0F2F91146FFF7F7FF02F00D
:1001500089FA00F00AFA03B4FFF7F2FF03BC00F0DB
:1001600011FA000070B505460C46164602E00FCCA9
:100170000FC5103E102EFAD2082E02D303CC03C5B1
:10018000083E042E07D301CC01C5361F03E02178B9
:100190002970641C6D1C761EF9D270BD074880471B
:1001A00007480047FEE7FEE7FEE7FEE7FEE7FEE75B
:1001B00004480549054A064B7047000069250008B8
:1001C000C1000008080300200809002008050020DD
:1001D00008050020431A70B593421BD28918801875
:1001E00004E0491E401E0B78521E03709307F8D19D
:1001F00006E01039103878C9103978C01038103A34
:10020000102AF6D203E0091F001F0B680360121FBB
:10021000F9D570BDFFF7A6FF70BDF8B506461446C8
:100220000843800707D0751AA54219D20819102D66
:1002300013D2311907E03046FFF7CCFFF8BD401E5E
:10024000491E02780A70641EF9D2F8BD471B2A467F
:10025000394600F02AF9641B3846A542F6D3011B43
:100260002246304600F021F9F8BD01E004C0091F24
:100270000429FBD28B0701D50280801CC90700D05E
:100280000270704700290BD0C30702D00270401CD7
:10029000491E022904D3830702D50280801C891ECF
:1002A000E3E70022EEE70022DFE700000022030977
:1002B0008B4273D3030A8B4258D3030B8B423CD33C
:1002C000030C8B4221D312E003460B437FD4002260
:1002D00043088B4274D303098B425FD3030A8B42DA
:1002E00044D3030B8B4228D3030C8B420DD309025A
:1002F000FF2212BA030C8B4202D31212090265D0FC
:10030000030B8B4219D300E0090AC30B8B4201D3C4
:10031000CB03C01A5241830B8B4201D38B03C01A0B
:100320005241430B8B4201D34B03C01A5241030B82
:100330008B4201D30B03C01A5241C30A8B4201D333
:10034000CB02C01A5241830A8B4201D38B02C01ADE
:100350005241430A8B4201D34B02C01A5241030A55
:100360008B4201D30B02C01A5241CDD2C3098B423A
:1003700001D3CB01C01A524183098B4201D38B01B7
:10038000C01A524143098B4201D34B01C01A52415A
:1003900003098B4201D30B01C01A5241C3088B429F
:1003A00001D3CB00C01A524183088B4201D38B008A
:1003B000C01A524143088B4201D34B00C01A52412C
:1003C000411A00D201465241104670475DE0CA0F03
:1003D00000D04942031000D3404253409C460022C3
:1003E00003098B422DD3030A8B4212D38901FC22CD
:1003F00012BA030A8B420CD3890192118B4208D3A3
:10040000890192118B4204D389013AD0921100E004
:100410008909C3098B4201D3CB01C01A5241830918
:100420008B4201D38B01C01A524143098B4201D345
:100430004B01C01A524103098B4201D30B01C01A70
:100440005241C3088B4201D3CB00C01A52418308EA
:100450008B4201D38B00C01A5241D9D243088B4240
:1004600001D34B00C01A5241411A00D201465241F9
:10047000104663465B1001D34042002B00D5494231
:10048000704763465B1000D3404201B50449002821
:1004900002DC491C084000E00846C046C04602BDD8
:1004A000FFFFFF7F704770477047F8B5042A2CD3D1
:1004B000830712D00B78491C0370401C521E83071F
:1004C0000BD00B78491C0370401C521E830704D0CC
:1004D0000B78491C0370401C521E8B079B0F05D0E4
:1004E000C91ADF002023DE1B08C90AE0FFF73AFE25
:1004F000F8BD1D4608C9FD401C46B4402C4310C041
:10050000121F042AF5D2F308C91A521EF0D40B7830
:10051000491C0370401C521EEAD40B78491C03701E
:10052000401C012AE4D409780170F8BD754600F03A
:1005300025F8AE46050069465346C008C00085460A
:1005400018B020B5FFF734FE60BCB6460026002781
:10055000C0C5C0C5C0C5C0C5C0C5C0C5C0C5C0C573
:10056000403D490849008D46704710B50446C046D5
:10057000C0462046FFF7EFFD10BD00000048704761
:100580001000002001491820ABBEFEE72600020043
:100590007047000070B582B00546002401940068E1
:1005A000816803220A40012A05D10168C9070ED1DA
:1005B000C16809040BD48168214A11420AD0A86B92
:1005C00010210143A963E86B01242043E86320461E
:1005D00002B070BD816801220A4382606C480068E5
:1005E0006C4902F0FFFC01900198002817D0019897
:1005F000401E01900198002811D00198401E0190E2
:10060000019800280BD00198401E01900198002805
:1006100005D00198401E019001980028E7D100F014
:1006200049FC064628680068C007D0D100F042FCAB
:10063000811B28680329F6D30168C907F3D1BEE7F7
:100640001700008080B5024800F067FA80BDC04600
:10065000B0000020EFF3108072B6FEE7F0B583B073
:10066000002302933422825C012A02D1022003B0CB
:10067000F0BD0193074634370668B268520716D4B6
:1006800000970D684B6801242746AF403E4A9342CD
:1006900014D1B06AB843B062284610380228019ECF
:1006A0003046009F5BD8112D1AD03C4819E0816B71
:1006B00020220A4382630120019E50E0B26A3A433D
:1006C000B262C06A421E072A4CD22846103802285D
:1006D000019E3046009F42D8112D0DD020060CE01F
:1006E0002D48102D00D12E4828490A6802400A6082
:1006F00030463E7003B0F0BDA005102D00D1E005DE
:1007000022490A6802430A60102D304627D120484A
:100710000068204902F066FC0A21414302910298D8
:10072000002830461BD00298401E029002980028F4
:1007300011D00298401E0290029800280BD0029817
:10074000401E02900298002805D00298401E029098
:1007500002980028E7D130463E7003B0F0BD3E70ED
:1007600003B0F0BD22079042AFD07269072002406B
:1007700089689142A9D072698243726101407069AF
:1007800008437061A1E7C04601100000082701403E
:100790000800002040420F00FFFFBFFFFFFFFFFEE9
:1007A000FFFF7FFF0068006C70470000F0B581B06C
:1007B0000125002862D0044606462436806B0028B6
:1007C00003D0A06BC00609D554E000203074E0636C
:1007D000204600F097F8A06BC0064BD420688168D3
:1007E000490747D481214900A26B8A43911CA16328
:1007F000826803210A40012A05D10268D2070ED17E
:10080000C26812040BD4C26818239A43A368134326
:10081000C360890702698A43616811430161C16845
:10082000364A0A40C260A16A491E4A1E9141090324
:10083000227E9203637EDB031343A27E55031D4396
:10084000E36827692B430B43B91E4D424D41AD0070
:100850001D43317849002943E37E012B14D1002A3E
:100860000FD0A26B20231343A363E26B0123134336
:10087000E36309E0A06B10210143A163284601B0A6
:10088000F0BD012212041143E269FF23C2339A42F0
:1008900002D0236A19431143C2680A43C260E26A64
:1008A000531E072B24D243690725AB4343612A40DB
:1008B000436913434361C068114A02408A420AD126
:1008C0000025E563A06B0121014302208143A16360
:1008D000284601B0F0BDA06B1021014302208143E6
:1008E000A163E06B01252843E063284601B0F0BD19
:1008F00001231B079A42D6D0DDE7C0461902FEFF4E
:10090000E7FF3F8310B586B0002105910491006890
:10091000114A904201D006B010BD012042020F4B97
:100920005C6814435C605C6814400094009A400466
:100930001A6802431A601A68024000920391032069
:100940000290022001900920C006009901A900F040
:10095000DFF906B010BDC04600240140141002406B
:10096000F0B581B00D4604464069082801D108273A
:1009700004E02068C068C00764D10C2700F09AFA30
:1009800006462168086838421CD001204202A36B49
:100990001343A363CA681205920F66D1A27E002A90
:1009A00063D10A68120760D58A68520754D4224678
:1009B00038324B680C25AB434B60FF25023513687A
:1009C000AB4350E0681C39D0002D1BD10868384279
:1009D00021D008683842D8D1086838421BD008684E
:1009E0003842D2D10868384215D008683842CCD194
:1009F000086838420FD008683842E7D0C5E7086871
:100A00003842C2D100F056FA801B2168A842F6D9BC
:100A100008683842F3D1342000212154A06B04210E
:100A20000143A163032001B0F0BD08683842ACD196
:100A300008683842A9D108683842A6D10868384207
:100A4000F3D0A2E7342000212154A06B20210143E0
:100A5000A163012001B0F0BDA26B20231343A36367
:100A600022463C32E36B03431360227E0020002ABF
:100A700001D001B0F0BD0C220A6001B0F0BD000051
:100A800070B5044600688168022049070FD43421FC
:100A9000615C01290BD02546343501262E70607E1D
:100AA000012805D02046FFF775FD002800D070BD55
:100AB000A06B0849014030020818A0630020E063E1
:100AC00021681C220A6028708A68042313438B6003
:100AD00070BDC046FEF0FFFFB0B5014620314A7838
:100AE000022A16D1026813680E24A3431360136808
:100AF0000125AB431360C26B036C2C469C405460D1
:100B000000240C704D70416B002900D088472046AE
:100B1000B0BD042181630120B0BDF0B585B0C16BCB
:100B2000026C04273C460292944003910E682146D1
:100B300031404B424B4104900568286801463940DA
:100B40004A424A411A4330D0019501230227014607
:100B500039404C424C41029A974037421D46194653
:100B6000334600D02146049E3446203400292CD040
:100B700008210840474247411046D340190700D595
:100B80003D46002D019B1ED119680E22914319602C
:100B900001210A468240039B5A60B1630022227001
:100BA0006170316B00290CD10DE02968890602D4EF
:100BB0002968B943296003994C60049EF16A0029B1
:100BC00001D03046884705B0F0BD019B1968890601
:100BD00005D419680A22914319600121617000212E
:100BE000217003994F60B16A0029EAD1EBE7000058
:100BF000F0B585B000282FD00446064620360220E6
:100C00007070A2CC236860680190A0680290E068D0
:100C10000390206904900868114A02402A433A432D
:100C20001A4301980243029802430398024304982E
:100C300002430A600025E5620A48206335700A48CD
:100C40000C3C0818142102F0CDF98000206401202A
:100C50007070284605B0F0BD0125284605B0F0BDEE
:100C60000FC0FFFF00000240F8FFFDBFF0B582B0EB
:100C700004462020255C0220012D2AD0264620365D
:100C8000012535707778012F21D102207070002066
:100C9000A06326683768AF433760E76B0097276C1F
:100CA0000195BD40009F7D6073606368102B1746FF
:100CB00000D00F46B760102B00D01146F1603168AC
:100CC000E26A002A019B06D00E22114309E00021AE
:100CD000317002B0F0BD0A22114331603168042244
:100CE0009143316031681943316002B0F0BD0000BA
:100CF000B0B5044600F0DEF80546601C02D08A4814
:100D00000078041900F0D6F8401BA042FAD3B0BD19
:100D1000F0B58AB002900D68002D00D1B9E05E48B0
:100D2000029A824201D0052000E004201723DB064E
:100D3000D2180A23DA410092042A00D30090002737
:100D40003B463C4608912A460BE013433360079B21
:100D5000641C0A681046E040BF1C1B1D002800D11F
:100D600097E001200646A6403240F1D00490079358
:100D700003200346BB400397DF4349680D46054007
:100D80006B1E012B0697059113D80192029A906869
:100D90003840089BDB68039FBB4003439360C80651
:100DA000C00FA0405368B3431646019A03437360D3
:100DB00006E0032D029E039F02D10546079B1EE01D
:100DC000F0680699084008998B68BB400343F360BC
:100DD000022D079B13D11C2018400F218140E308EE
:100DE0009B00F3181D6A8D43089E31698140294399
:100DF0001962079B7068029E032505900540BD405F
:100E00003068069908402843306005988003800FB9
:100E10000899049D9CD04F490868284308600868D9
:100E2000284009900C2018400F21814003232546BB
:100E30009D43099B1A4EAB598B430099814019433E
:100E4000A9510899154EB5684868C3020FD51543D6
:100E5000B560F56883020FD49543F5607568830328
:100E60000FD4954375603368C00310D56DE7954383
:100E7000B560F5688302EFD51543F56075688303A7
:100E8000EFD5154375603368C00300D55DE7934324
:100E90005CE70AB0F0BDC046001000480004014005
:100EA00008000140002A02D01822815070472822F1
:100EB00081507047054800687047C0461A4800785E
:100EC00002490A68101808607047C04604030020F1
:100ED00010B58B48016810220A43026000242046A6
:100EE00000F004F800F022F8204610BD70B504466A
:100EF0007D20C0000C4E317802F074F8014688481D
:100F0000006802F06FF800F00FFC0125032C08D8F0
:100F1000002806D10025E84321462A4600F028F89B
:100F20007460284670BDC0460000002082B00948A9
:100F3000016801221143016001681140019101998A
:100F4000110742680A4342604068084000900098D8
:100F500002B0704718100240002805D41F21084035
:100F600001218140014801607047C04600E100E076
:100F7000002805D40322034693430A4A9A1803E043
:100F80000C220240064BD2188007C00E8901C9B25C
:100F90008140FF23834010689843084310607047E6
:100FA00014ED00E000E400E0F0B581B0002847D087
:100FB0000446534A1368012003408B4208D2136849
:100FC0000126B3430B431360126832408A4238D182
:100FD000009121688A074B4B11D54A0707D5072294
:100FE0001202484B1B681343464A1360454B1A686C
:100FF000F0239A43A3681343424A1360414BC90745
:1010000022D13F49086801263040009A904205D914
:101010000868B04308600868C00712D1207840070C
:1010200006D50720000219688143E068084318606C
:101030001A681007810F3548022912D2044650E081
:101040000126304601B0F0BD616803290DD01A1F9A
:1010500002290FD0012912D1126892030646F0D559
:1010600011E0032926D12A4C3BE01A6B9203064675
:10107000E7D508E0126892010646E2D503E012685F
:1010800092070646DDD518680326B043084318606A
:10109000FFF710FF07461C4D1A4B18680C21014042
:1010A000606880008142ACD0FFF704FFC01BA842FB
:1010B000F2D9C6E70321CB031249896A0F240C40F9
:1010C0001449095D94021A40240F134D2C5D9A4275
:1010D00002D033049A4200E00D4801F083FF4443FC
:1010E000084B18680006000F0C49085CC4400C4807
:1010F000046000263046FFF7F9FE304601B0F0BD2F
:1011000000200240041002408813000000127A0000
:10111000006CDC02FA310008EA310008DA3100081C
:1011200008000020F0B587B004460120002C00D153
:1011300045E204902078C007F94E05940CD0716800
:101140000C200140042900D090E03068800303D5D2
:101150006068002800D120E12078800721D57068E0
:101160000007800F0ED070680C210140082900D0C4
:101170009DE00320C003716801400120C00381424B
:1011800000D094E030688007059C03D5E068012812
:1011900000D002E13068F82188432169C900014389
:1011A0003160059C2078000724D42078400737D48C
:1011B0002078C00600D4D3E005984069411D00D1D5
:1011C000C2E0012800D030E1706B0421014371635B
:1011D000706B012101437163FFF76CFE0546706B74
:1011E000800700D5B4E0FFF765FE411B032002290C
:1011F000F5D9E4E1706AE169002900D181E00121BB
:1012000008437062FFF756FE0546706A8007CCD42B
:10121000FFF750FE401B0228F7D9032007B0F0BDAE
:10122000012003900107F0690840029006D1F0699F
:101230000843F061F0690840069006980191E14F7B
:101240003868C0054AD403980402386820433860DF
:10125000FFF730FE0546386820423FD1FFF72AFEEF
:10126000401B6428F7D9032007B0F0BD7168014026
:10127000082908D10320C00371680140012000043F
:10128000814200D161E7616801204704002900D153
:1012900017E1052900D12BE1012900D12CE101043E
:1012A00032688A43326081043068884327E13068BD
:1012B000059CE168002936D0012108433060FFF722
:1012C000F9FD05463068800700D563E7FFF7F2FDBA
:1012D000401B0228F6D9032007B0F0BD05988068AE
:1012E000002800D1B6E0052800D1C9E0012800D1CE
:1012F000CAE0306A039988433062306A0421884327
:10130000C5E0012188437062FFF7D4FD0546706A8D
:10131000800700D449E7FFF7CDFD401B0228F6D92E
:10132000032007B0F0BD012188433060FFF7C2FD04
:1013300005463068800700D433E7FFF7BBFD411B4B
:1013400003200229F5D93AE1706B042188437063C8
:10135000706BF821884305998969C900014371635D
:101360000598007880060BD571680C2001400C2987
:1013700039D1706B800303D50598006A01280CD120
:101380000598446A002C00D1E1E070680C2101400E
:10139000082905D1012C00D0C4E0049807B0F0BDA5
:1013A0000120020631680492914331604706FFF73D
:1013B00081FD0546022C0BD1049C3068384200D1D7
:1013C000DEE0FFF777FD411B03200229F5D9F6E0A7
:1013D0003068384200D1BAE0FFF76CFD411B0320B2
:1013E0000229F5D9EBE071680140082905D10320F5
:1013F000C003716801408142BBD0706B0599096AD6
:10140000002900D1A9E001210A04104370634C04B3
:10141000FFF750FD0546706B2042B1D1FFF74AFD42
:10142000411B03200229F6D9C9E0706B0421014356
:101430007163706B012188437063FFF73BFD0546C4
:10144000706B80078CD5FFF735FD411B0320022907
:10145000F6D9B4E0306A039988433062306A0421D7
:1014600088433062584CFFF725FD0546306A8007F7
:101470001DD5FFF71FFD411B0320A142F6D99EE0B9
:10148000306A042101433162306A039908433062B3
:101490004D4CFFF70FFD0546306A800707D4FFF774
:1014A00009FD401BA042F7D9032007B0F0BD029808
:1014B0000028059C00D07BE6F06901998843F06123
:1014C00076E6010432688A433260800431688143E1
:1014D0003160FFF7EFFC0546059C3068384200D1CB
:1014E0003AE6FFF7E7FC411B03206429F5D966E0E3
:1014F000810432680A433260010430680843306076
:10150000FFF7D8FC05463068384200D024E6FFF7E4
:10151000D1FC401B6428F6D9032007B0F0BDC046BB
:10152000001002400320C20370680240F16A059C6B
:10153000A36A9A42049D0DD10F221140236B994258
:1015400008D191040840E16A8842284637D100203A
:1015500007B0F0BD284607B0F0BD01210A04904352
:1015600070634C04FFF7A6FC0546706B204200D167
:1015700006E7FFF79FFC411B03200229F5D91EE077
:10158000F06A0F218843059A116B0143F1627B20B9
:10159000C00371688143D06A0843916A0143716056
:1015A000306820433060FFF785FC044630683842DD
:1015B000CDD1FFF77FFC011B03200229F6D907B02C
:1015C000F0BDC0460070004088130000F0B585B043
:1015D00000280CD0044605465C3541208600606A30
:1015E000002807D0002020612046143007E00120A9
:1015F00005B0F0BD6068B04203D020461C30002129
:1016000001600027A7626878002804D100202870B4
:10161000204600F059F80220049501906870206877
:1016200001684022914303900160E168254A012549
:1016300091422A4600D33A461203ED020D430F278A
:1016400038020290854201D00025A5626568A7682E
:10165000354021239B023B405B19256901980540D9
:101660001D436069012318402843FC36A7693E40AA
:101670000643E069382505403543206A8026064048
:101680002E435803A56A05403543039E3560380C48
:1016900004250540029801400A432A43606A10214C
:1016A00001401143606B082202400A437260D80275
:1016B000F1698143F1610020206604994B7005B007
:1016C000F0BDC0460107000080B586B00068134930
:1016D000884201D006B080BD01208103104A936882
:1016E0000B43936093680B40019301998004116848
:1016F0000143116011680140009100200590032111
:10170000049103900220029007204003019000986A
:10171000044801A9FFF7FCFA06B080BD003800407C
:101720001410024000040048401E010E01D00120A8
:1017300070470749074A5060074803680B40032178
:1017400089075918016000209060072111607047D7
:10175000FFFFFF0010E000E020ED00E070B53C224C
:10176000825C012A01D1022070BD03463C33002275
:101770001A703F231B02CC689C430F239D028E6886
:10178000AE432643DB024C689C43344307231B03D0
:101790000D689D43254303235B030C699C432C4345
:1017A0004B6923430124A403A343C9691943006877
:1017B0004164104670BD000010B53C22825C012AD5
:1017C00001D1022010BD02463C3202235370006852
:1017D00043687024A3430C681C4383684460444CF2
:1017E000A04207DC0124A407A04209D0814CA042FA
:1017F00006D00AE07D4CA04202D07D4CA04204D12C
:101800008024A3434968194381600020107001219E
:10181000517010BD70B5002829D0044605463C35EE
:101820006878002804D100202870204600F06AF86B
:101830000220687021680E6801208307994205D054
:101840006B4A914202D06B4A914219D17022964361
:10185000A2683243264EB14216DD264B994208DC7F
:10186000634B994218D0614B994215D03EE001205C
:1018700070BD214B99420FD0204B99420CD035E0DE
:1018800032461B4EB142E8DC994205D0F64B9942F4
:1018900002D0F34B994229D103231B029A432369B7
:1018A000134322463E328026B343A6691E430E6090
:1018B000E368CB6263688B62114BCB180A26F34155
:1018C000072B06D806469E40E1231E4201D06369DD
:1018D0000B6348611072107050709070D07010716E
:1018E00050719071D0716870002070BD1346D8E7B8
:1018F000FF2B0140FF4301400048014000440140EC
:1019000000D4FEBFF0B585B004460068D3498842D4
:1019100037DDD349884246D0344988424FD0D14937
:10192000884257D10122D00203903349091F0B6826
:1019300003430B60314D00238020029010270326C3
:1019400030030190900212022D4EC0C52B60029F01
:101950006F60AA60E8602B6101986861086803996C
:10196000084004900498083D2846FFF741F90028F4
:1019700001D0FEF76FFE25636563A5636C6205B059
:10198000F0BD01218A07904226D0B749884221D173
:101990001948016802221143016000681040049058
:1019A000049805B0F0BD0120000213490A68024303
:1019B0000A60096801400491049805B0F0BD012057
:1019C00000040D49091F0A6802430A6009680140C2
:1019D0000491049805B0F0BD074802680A4302600C
:1019E000006808400490049805B0F0BD0040014034
:1019F000002C0140000400401C100240B0000020F8
:101A000044000240F0B53C22825C012A01D1022050
:101A1000F0BD02463C3202235370504E3346773BB2
:101A20000468A0681840A0600D6800234F2D1EDCDC
:101A30001F2D35DD202D37D0302D35D0402D00D055
:101A400086E0206A256A0126B5432562A569F0264D
:101A5000B543CE6836012E43A6610A25A8434968DE
:101A600001432162A06847210143302069E06F2DC6
:101A700026DD01204703BD4240D0000385421846C1
:101A80001AD0702D64D1A06830404D688E68C96846
:101A90002E43090231430143A160A068772139E058
:101AA000002D01D0102D53D1A0687021884305432B
:101AB00007202843A0601846137001215170F0BD23
:101AC000502D29D0602D43D11020C043256A0540F8
:101AD00025620F252D03A669AE43CD682D0335433E
:101AE000266AA561A025AE434968090131432162F8
:101AF000A16867250D430540A56024E0A568354031
:101B00004E688F68C9683743090239432943A16089
:101B10008003A168014315E0206A256A0126B543C8
:101B20002562A569F026B543CE6836012E43A6612D
:101B30000A25A843496801432162A068572101434F
:101B400020208143A1601846137001215170F0BD1F
:101B50000120137001215170F0BDC046FF00FFFF4E
:101B600070470000B0B586B0002405940494039437
:101B70000294019401683948814219DC01208207EE
:101B800091422CD0384A914265D1C00437490A6845
:101B900002430A600968014000910594049403948B
:101BA000022002900F2080010190009830484FE001
:101BB0002B48814238D0D24881424CD10120400488
:101BC0002A490A6802430A6009680140009102201C
:101BD00005900494039402900F20000234E0410425
:101BE000224A13680B43136013680B40009300995B
:101BF00080041168014311601168014000910225C1
:101C000005950494039402952020019000980920E2
:101C1000C00601A9FFF77CF805950494039402958A
:101C200014480190144813E0012040040F490A6849
:101C300002430A6009680140009104200590049461
:101C40000394022002901020019000980920C00601
:101C500001A9FFF75DF806B0B0BDC046FF1F004008
:101C600000200040002C01400004004014100240FD
:101C700000080048080C000000040048F0B583B0DC
:101C80003C23C35C012B02D1022003B0F0BD074608
:101C90003C370223DA41032A39D802977A44127971
:101CA0005200974401394C610268146A0120844350
:101CB0001462D04C14190A25EC41156A9D438E68B4
:101CC0002E43536800930B6801939569072C00D944
:101CD000ECE00346A340E1273B4200D1EAE00C23BD
:101CE0009E43CB680427BB433343029F072C00D994
:101CF000E5E0A040E124204200D1E0E00320000222
:101D0000009E86434C69886934430443D8E001202F
:101D10000021397003B0F0BD0268106A10239843A7
:101D20001062106A202398438B681B01034350689C
:101D30000D689469E44EB24250D01E4655E001272A
:101D40003B020268106A984310627802146A844366
:101D500088680302234350680C680194D569DA4E01
:101D6000B24256D01E465DE0012633030268106A77
:101D700098431062D34813180A20C341156A50686B
:101D80008C680F680197D769072B00D9B4E00094DD
:101D900034469C40E1231C4200D1AFE0B30398439A
:101DA0004B699B010343009C10461C305360732316
:101DB0001B029F43019B1B023B43D3614B6813648F
:101DC00073039D4323032B431362F302D4691C4323
:101DD000D461B302D4699C43D4614CE0C026B343C0
:101DE000CE6836014027BE431E43B64BD3180A27A0
:101DF000FB41072B29D801279F40E1231F4224D014
:101E000003239B0298434B698F691F43BB00034325
:101E10001CE00326B602B3433A4CFF3CCE683602C0
:101E200026401E43A74BD3180A24E341072B26D88C
:101E30009F40E1231F4222D003231B0398434B6999
:101E40008C691C43230103431AE0034610461830F3
:101E5000536073231B029C432B02234393614B6803
:101E6000936316620123DC029569254395619B0209
:101E700094699C43946109690902029F34E0034616
:101E8000029F10461C30536073239D43019B1D43EA
:101E9000D5614B68D3631662D36908241C43D461AF
:101EA000D3690424A343D36109691DE03346072C99
:101EB00005D81EE73346029F072C00D819E7009C7F
:101EC0001046183054607324A543019C2543956146
:101ED0004C6854631362936908241C4394619369AA
:101EE0000424A3439361096902680A430260002045
:101EF0000021397003B0F0BD034655E7034652E7B1
:101F0000002C0140FFFBFFFF70B5002829D00446DC
:101F100005463C356878002804D10020287020460A
:101F200000F06AF80220687021680E6801208307BB
:101F3000994205D0DC4A914202D0DC4A914219D143
:101F400070229643A2683243D54EB14216DD254B2E
:101F5000994208DCD44B994218D0D24B994215D003
:101F60003EE0012070BD204B99420FD01F4B99429B
:101F70000CD035E03246CA4EB142E8DC994205D079
:101F8000CA4B994202D01A4B994229D103231B0212
:101F90009A432369134322463E328026B343A669FF
:101FA0001E430E60E368CB6263688B62BB4BCB1849
:101FB0000A26F341072B06D806469E40E1231E421F
:101FC00001D063690B63486110721070507090709B
:101FD000D070107150719071D0716870002070BD18
:101FE0001346D8E7FF430140004801400044014048
:101FF0000020004000D4FEBF704780B50C2100F0E7
:1020000057F980BD7047000002463E32002908D0D3
:1020100008290CD0042910D1531C1B78012B0AD19C
:102020000FE01378012B06D10223137013E0931CE9
:102030001B78012B05D001207047D31C1B78012B86
:10204000F9D10223082903D0042903D1537002E0F7
:10205000937000E0D3701F221140012213468B4081
:102060000068016A99430162016A19430162CD491E
:1020700041180A23D941072908D813468B40E1218A
:102080000B4203D0D103436C0B4343648449884221
:1020900006DC9107884209D08449884206D00CE0CA
:1020A0008049884202D08049884206D1816807234E
:1020B0000B40062B01D100207047016811430160DD
:1020C0000020704700D4FEBF002C014070B50C46C4
:1020D000054601463E31002C08D0082C0CD0042CBB
:1020E00018D1481C0078022818D009E00878022886
:1020F000084616D1022070BD881C007802280DD039
:10210000082C0DD0042C1DD1481C06780120012E6E
:102110001DD10AE0C81C00780228F1D1022070BD50
:10212000881C06780120012E11D1002A0FD0002B27
:102130000DD00226002C0BD0082C0BD0042C0BD178
:102140004E700AE0C81C06780120012EEDD070BD4B
:102150000E7002E08E7000E0CE7002262146F14142
:102160000329F4D87944097949008F4401172D4394
:10217000686A47498162686A4649C162686A464935
:102180000163686A2E68343611463246FEF76EFDEA
:10219000014601200029DAD1410240E0A86A3C4909
:1021A0008162A86A3B49C162A86A3B490163A86A87
:1021B0002E68383611463246FEF758FD014601209A
:1021C0000029C4D181022AE0E86A31498162E86AC3
:1021D0003049C162E86A30490163E86A2E683C36DA
:1021E00011463246FEF742FD014601200029AED1DC
:1021F000C10214E0286B26498162286B2549C1621F
:10220000286B25490163286B2E68403611463246FB
:10221000FEF72CFD01460120002998D10103286812
:10222000C2680A43C2601F210C4001210A46A24035
:10223000036A93430362036A13430362594A821891
:102240000A23DA41072A08D80B469340E1221342B9
:1022500003D0CA03436C13434364114A904204DC25
:102260008A07904207D0114A03E00E4A904202D0FA
:102270000D4A904206D1826807231340062B01D1F4
:10228000002070BD02680A430260002070BDC04695
:102290006B250008D32500080B26000800D4FEBFDC
:1022A000FF2B014000400140002C01400004004091
:1022B00070B50D46044602212846C84103280ED8B1
:1022C0007844007940008744010C151E012040022B
:1022D0002168CA688243CA60204624301BE001207E
:1022E00070BD012080022168CA688243CA6020460E
:1022F000283010E00120C0022168CA688243CA6009
:1023000020462C3007E0012000032168CA68824380
:10231000CA60204630300068FEF7DEFB1F212940EE
:10232000012002468A4021680B6A93430B620A6AC5
:102330000A621C4A8B180A22D3411B4A072B0BD86E
:1023400006469E40E1231E4206D00B6A134203D18B
:102350000B6A164E33420AD00B6A13420ED10A6A38
:10236000124B1A420AD10A6882430A6006E0C3038C
:102370004E6C9E434E640B6A1342F0D03E34082DDF
:1023800006D0042D07D0002D08D12070002070BD8C
:10239000A070002070BD6070002070BDE070002053
:1023A00070BDC04600D4FEBF1111000044040000FF
:1023B000F0B581B000286DD0044605463C3528783C
:1023C000002804D100206870204600F067F8022041
:1023D00028702068012707606268A3681343226998
:1023E00066690095A569E16952041A4332432A439C
:1023F0000A43616AA36A1143194302680A430260EF
:10240000217B012903D1390402680A430260226B4F
:10241000616BA36B11430C461C43E443046181626E
:1024200003620F23114619404C1EA141140F661E72
:10243000B441E4016118F0241440661EB441640004
:1024400009191C021440661EB441A40009191C039A
:102450001440661EB441E40009191C041440661EB1
:10246000B441240109191C051440661EB4416401DD
:1024700009191B0613405A1E93419A010A4302632D
:1024800041680322914341608260009807700020F8
:1024900001B0F0BD012001B0F0BD0000F0B589B081
:1024A00000682A49884201D009B0F0BD0120010628
:1024B00003460390264802680A43026002680A4005
:1024C00004920499590402680A43026002680A40AF
:1024D00004920499990402680A4302600068084063
:1024E0000490049803270897002607960696022072
:1024F00002900590442004900920C50604AC2846AB
:102500002146FEF705FC08970796069612200190D3
:1025100005908820049028462146FEF7F9FB08978D
:1025200007960696029D0595039804900948214652
:10253000FEF7EEFB0897079606960198059004951E
:1025400004482146FEF7E4FB09B0F0BD004002401C
:102550001410024000040048FEE7FEE77047704791
:1025600080B5FEF7ABFC80BD704710B5446A2146CC
:102570003E31626A824210D0A26A824214D0E26A7C
:10258000824219D0226B82421DD1082222778069B3
:10259000002818D10120C87015E001222277806937
:1025A000002810D10A700EE00222227780690028EC
:1025B00009D10120487006E00422227780690028B2
:1025C00001D1012088702046FFF717FD00202077F9
:1025D00010BD10B5446A616A81420AD0A16A814285
:1025E00009D0E16A814208D0216B814207D10820DD
:1025F00004E0012002E0022000E0042020772046D1
:10260000FFF700FD0020207710BD10B5446A214679
:102610003E31626A82420DD0A26A82420ED0E26AE4
:10262000824210D0226B824212D020463D300121DE
:10263000017011E00120087020770DE00120487042
:102640000220207708E0012088700420207703E032
:102650000120C870082020772046FFF781FA00206B
:10266000207710BD70B5E44EB544E44F6F44E44E9E
:102670006E44E44868445021FDF715FE14A8E24971
:10268000FDF711FEFEF724FC0024E04868440460D6
:1026900034607460F46034617461DD4868440460DF
:1026A000DC48684404601220386001200605C50338
:1026B000022113913A46243262C23C631021F86031
:1026C00039617861B961CD486844FEF72BFD002877
:1026D00003D0EFF3108072B6FEE707201190786305
:1026E0001398B863FC633C64CB48684401211291A1
:1026F000FEF75AFC002803D0EFF3108072B6FEE715
:102700000E950F963C611298C1040346C34A1068A7
:102710000843106010680D9108407863786B590485
:1027200010680843106010680C9108407863786B5B
:1027300099041E4610680843106010680B91084009
:102740007863786BB648212529462246FEF7AAFB16
:1027500060C73C607C60A94D6D44B1482946083F84
:10276000FEF7D6FA092010904604062041C73C60C7
:10277000AB482946083FFEF7CBFA129841C73C60A8
:102780001098C0062946083FFEF7C2FAA349086818
:10279000129D2843086008682840386038680B2676
:1027A000304621462246FEF7E3FB3046FEF7D4FBD7
:1027B0009C480821046244628462119AC2620463E4
:1027C00041632A466D0203230A931E0213021093EB
:1027D0001A1D954B0360426084600996C6600461CF
:1027E000446111958561C161FEF7F0FE0028129BDE
:1027F00003D0EFF3108072B6FEE708978B48A02154
:1028000004738B4A44635D030361446107958561EA
:10281000C1610462446284621906119D1F0784C06D
:1028200001600838014620310C73294644310163A8
:102830009E02314688318163FFF7BAFD002803D03C
:10284000EFF3108072B6FEE70697059624217948CB
:102850004454129F876204620421774A109BC1335B
:102860003D0414C0046044608760C1600561436139
:102870000838FDF79BFF002803D0EFF3108072B6F5
:10288000FEE73D03089E376075600698B0606948B2
:102890005A496944FDF7E2FE002803D0EFF31080A7
:1028A00072B6FEE734667466B4667465B4656348F0
:1028B0006421634A14C0046041608460C4600461A0
:1028C00034607460B460F46034617461B461F46164
:1028D0000838FEF79FFF002803D0EFF3108072B690
:1028E000FEE7F565554857496944FFF78BF800281E
:1028F00003D0EFF3108072B6FEE75048FFF704FBF9
:10290000002803D0EFF3108072B6FEE74B484E4923
:102910006944FEF751FF002803D0EFF3108072B630
:10292000FEE70495602005467063B463F463346485
:102930007464B464F4644148374969440694224697
:10294000FFF79CF9002803D0EFF3108072B6FEE782
:102950003A48314969440422FFF790F9002803D02E
:10296000EFF3108072B6FEE734482B496944082221
:10297000FFF784F9002803D0EFF3108072B6FEE76A
:102980002E48254969440C22FFF778F9002803D026
:10299000EFF3108072B6FEE706980899C8610860E8
:1029A00048608860C86008610798486123481349F7
:1029B0006944FEF7D3FE002803D0EFF3108072B60F
:1029C000FEE71E48FFF7CEF82048069A8261049978
:1029D0000C1D1F4906C00260446082600899CA60ED
:1029E0000A614A618A610838FEF714FF002831D075
:1029F000EFF3108072B6FEE770F7FFFF24080000C7
:102A000030080000D40700008407000038080000E8
:102A10002C0800002808000058080000141002408C
:102A200000080048F400002000380040C0020020E8
:102A300000400240700000200024014058010020A6
:102A4000002C01408008000078080000A001002050
:102A500000200040DE48FFF757FA002803D0EFF3CC
:102A6000108072B6FEE7069A08980261056042601F
:102A70008260D748D7496944FFF700F9002803D09E
:102A8000EFF3108072B6FEE7D148FFF76BF8D2483B
:102A9000069A82611299890706C0026044608260CA
:102AA00008998A63CA630A64CA650A66CA600A61C9
:102AB0004A618A610838FEF7ADFE002803D0EFF3C3
:102AC000108072B6FEE7049808994863C248C3496B
:102AD0006944FEF797FF002803D0EFF3108072B629
:102AE000FEE7BD48FFF710FA002803D0EFF310808F
:102AF00072B6FEE7B848BA496944FEF75DFE0028A1
:102B000003D0EFF3108072B6FEE7069A08980261D0
:102B1000056042608260B048AE496944FFF7AEF894
:102B2000002803D0EFF3108072B6FEE7AA48A94947
:102B300069440422FFF7A2F8002803D0EFF31080C5
:102B400072B6FEE7A448A34969440822FFF796F845
:102B5000002803D0EFF3108072B6FEE79E489D492F
:102B600069440C22FFF78AF8002803D0EFF31080A5
:102B700072B6FEE79848FEF7F5FF9A48069A82611A
:102B8000994906C002604460826008998A63CA63FA
:102B90000A64CA650A66CA600A614A618A610838BD
:102BA000FEF738FE002803D0EFF3108072B6FEE780
:102BB0000498089948638B4888496944FEF722FFC6
:102BC000002803D0EFF3108072B6FEE78548FFF7C8
:102BD0009BF9002803D0EFF3108072B6FEE781481E
:102BE0007F496944FEF7E8FD002803D0EFF3108029
:102BF00072B6FEE7069A089802610560426082603C
:102C0000F04874496944FFF739F8002803D0EFF31E
:102C1000108072B6FEE7EB48EF4969440422FFF7E3
:102C20002DF8002803D0EFF3108072B6FEE7E548D8
:102C3000E94969440822FFF721F8002803D0EFF39F
:102C4000108072B6FEE7DF48E34969440C22FFF7C3
:102C500015F8002803D0EFF3108072B6FEE7D948CC
:102C6000FEF780FFD848D94AD949016006994160EA
:102C70008160C260016141618161089A5160916027
:102C8000D16051639163FEF7C5FD002803D0EFF3D7
:102C9000108072B6FEE7049808990860CA48CE49C9
:102CA0006944FEF7AFFE002803D0EFF3108072B640
:102CB000FEE7C548CA496944FEF77EFD002803D0F7
:102CC000EFF3108072B6FEE7BA48FDF7D9FEBB48B5
:102CD000069C2146FFF798F9B74E30462146FFF78C
:102CE00093F9042530462946FFF78EF90827304628
:102CF0003946FFF789F9B24E30462146FFF784F98D
:102D000030462946FFF780F930463946FFF77CF90F
:102D10000C2108913046FFF777F9AA4E304621463C
:102D2000FFF772F930462946FFF76EF9304639460B
:102D3000FFF76AF930460899FFF766F90F20C001DE
:102D400014A908180390A5486844001D029011E0DA
:102D5000002003990860FF23E2330C2114AA96484F
:102D6000FFF7B4F90A20FDF7C3FF08989949FDF76A
:102D7000ABFA06910999E8318E4C2046FDF7F0FD3B
:102D80002046FDF70FFD8D49096880B248638A49E6
:102D9000096848638863C863894909684863886328
:102DA000C86308648749096848638863C86308641E
:102DB0008A4969444C220298FDF70CFA0698FE28CD
:102DC00014DC1298C043069A811A521C00201FE09E
:102DD000A001002024080000300200205808000054
:102DE0008008000078020020000400401098FE30A7
:102DF0000699814206D21398C0430699421A881C4C
:102E0000002105E00A98C0430699401AC91C002217
:102E1000D2B29208714B6B445A70C9B2890899704A
:102E2000C0B2800818700698001D089014A80021F0
:102E300004E082656030091D502989D0674C6C44DC
:102E40006558222243230F9E3542164600D01E4667
:102E5000C6600B9E3542164600D01E4646610D9E4A
:102E60003542164600D01E460661584E761C354245
:102E7000164600D01E46C6610C9E3542164600D04E
:102E80001E4686610E9E3542164600D01E460662DC
:102E9000059E3542164600D01E464663049E3542C6
:102EA000164600D01E46C662079E3542164600D022
:102EB0001E468662109E3542164600D01E46C663E8
:102EC000119E3542164635D186636E02164636D4BB
:102ED00046602E02164637D40660AE02164638D437
:102EE00086606E04164639D446622E0516463AD4DC
:102EF00006636E0616463BD446642D06154600D57D
:102F00001D4605646458E506154637D4C564A50614
:102F1000154638D485646507154639D445652507B7
:102F200015463AD40565E50715463BD1C565A407A6
:102F30003DD47EE71E4686636E021646C8D51E4601
:102F400046602E021646C7D51E460660AE021646DD
:102F5000C6D51E4686606E041646C5D51E46466218
:102F60002E051646C4D51E4606636E061646C3D504
:102F70001E4646642D061546C2D4C2E71D46C564EA
:102F8000A5061546C6D51D46856465071546C5D5F3
:102F90001D46456525071546C4D51D460565E5074B
:102FA0001546C3D01D46C565A40700D441E71A469F
:102FB0003FE7C0467000002058010020A00100201B
:102FC0003002002078020020E8010020FFFF00000E
:102FD00000400140FD02000024080000D40700006A
:102FE0005808000043088B421AD3002203098B4281
:102FF00079D3030A8B425ED3030B8B4242D3030C7B
:103000008B4227D30902FF2212BA030C8B4202D350
:103010001212090203D0030B8B4233D31AE0D3E020
:10302000411A8041401C704703460B4371D443084A
:103030008B42F5D3002203098B4254D3030A8B42FF
:1030400039D3030B8B421DD3030C8B4202D394461E
:103050006EE0090AC30B8B4201D3CB03C01A524165
:10306000830B8B4201D38B03C01A5241430B8B421B
:1030700001D34B03C01A5241030B8B4201D30B0304
:10308000C01A5241C30A8B4201D3CB02C01A52412B
:10309000830A8B4201D38B02C01A5241430A8B42EE
:1030A00001D34B02C01A5241030A8B4201D30B02D7
:1030B000C01A5241CDD2C3098B4201D3CB01C01AF1
:1030C000524183098B4201D38B01C01A52414309FB
:1030D0008B4201D34B01C01A524103098B4201D3E9
:1030E0000B01C01A5241C3088B4201D3CB00C01A56
:1030F000524183088B4201D38B00C01A52414308CE
:103100008B4201D34B00C01A5241411A5241100068
:103110007047CA0F00D04942031000D340425340C9
:1031200000229C4603098B422DD3030A8B4212D303
:103130008901FC2212BA030A8B420CD38901921135
:103140008B4208D3890192118B4204D3890137D075
:10315000921100E08909C3098B4201D3CB01C01A47
:10316000524183098B4201D38B01C01A524143095A
:103170008B4201D34B01C01A524103098B4201D348
:103180000B01C01A5241C3088B4201D3CB00C01AB5
:10319000524183088B4201D38B00C01A5241D9D2CD
:1031A00043088B4201D34B00C01A5241411A00D24E
:1031B00001465241104663465B1000D340427047BF
:1031C00063465B1000D3404201B50021004201D0AC
:1031D000C9430846C046C04602BD000000000000CA
:1031E000000001020304060708090203040506079C
:1031F00008090A0B0C0D0E0F10100102030405063E
:103200000708090A0B0C0D0E0F10000030320008E1
:1032100000000020100000000401000840320008F7
:1032200010000020F8080000200100080000000045
:10323000010000000400000000127A0000000000FD
:04000005080000C12E
:00000001FF
