:020000040800F2
:10000000F00A002065010008E71E0008E51E000850
:1000100000000000000000000000000000000000E0
:10002000000000000000000000000000EB1E0008BF
:100030000000000000000000E91E0008ED1E00089E
:1000400077010008770100087701000877010008B0
:1000500077010008770100087701000877010008A0
:100060007701000877010008770100087701000890
:100070007701000877010008770100087701000880
:100080007701000877010008770100087701000870
:100090007701000877010008770100087701000860
:1000A0007701000877010008770100087701000850
:1000B0007701000877010008770100087701000840
:1000C00000F002F800F03EF80CA030C80838241800
:1000D0002D18671EA246AB4654465D46AC4201D180
:1000E00000F030F87E460F3EB6460FCC0126334274
:1000F00000D0FB1A3343A246AB461847D02300007A
:10010000F0230000103A02D378C878C1FAD8520719
:1001100001D330C830C101D504680C6070470000BD
:100120000023002400250026103A01D378C1FBD813
:10013000520700D330C100D50B6070471FB51FBDFB
:1001400010B510BD00F02DF81146FFF7F7FF01F0D4
:10015000E7FE00F045F803B4FFF7F2FF03BC00F040
:100160004BF800000748804707480047FEE7FEE7D6
:10017000FEE7FEE7FEE7FEE704480549054A064BB1
:1001800070470000F51E0008C1000008F0040020C0
:10019000F00A0020F0060020F006002070477047AB
:1001A0007047754600F024F8AE4605006946534690
:1001B000C008C000854618B020B5FFF7DDFF60BC61
:1001C000B64600260027C0C5C0C5C0C5C0C5C0C54D
:1001D000C0C5C0C5C0C5403D490849008D467047EF
:1001E00010B50446C046C0462046FFF7B4FF10BD18
:1001F000004870471000002001491820ABBEFEE700
:10020000260002007047000070B582B00546002449
:1002100001940068816803220A40012A05D101681F
:10022000C9070ED1C16809040BD48168214A114263
:100230000AD0A86B10210143A963E86B0124204375
:10024000E863204602B070BD816801220A438260E3
:1002500066480068664902F025F801900198002878
:1002600017D00198401E01900198002811D00198E4
:10027000401E0190019800280BD00198401E01906B
:100280000198002805D00198401E0190019800288F
:10029000E7D100F021FB064628680068C007D0D1EE
:1002A00000F01AFB811B28680329F6D30168C907EF
:1002B000F3D1BEE717000080F0B583B000230293AE
:1002C0003422825C012A02D1022003B0F0BD0193E6
:1002D000074634370668B268520716D400970D688F
:1002E0004B6801242746AF403E4A934214D1B06A7E
:1002F000B843B062284610380228019E3046009F5D
:100300005BD8112D1AD03C4819E0816B20220A439A
:1003100082630120019E50E0B26A3A43B262C06A31
:10032000421E072A4CD2284610380228019E304629
:10033000009F42D8112D0DD020060CE02D48102D25
:1003400000D12E4828490A6802400A6030463E70B3
:1003500003B0F0BDA005102D00D1E00522490A68C8
:1003600002430A60102D304627D1204800682049FA
:1003700001F098FF0A21414302910298002830467B
:100380001BD00298401E02900298002811D00298BB
:10039000401E0290029800280BD00298401E029046
:1003A0000298002805D00298401E0290029800286A
:1003B000E7D130463E7003B0F0BD3E7003B0F0BDF3
:1003C00022079042AFD072690720024089689142AB
:1003D000A9D07269824372610140706908437061FB
:1003E000A1E7C046011000000827014008000020D6
:1003F00040420F00FFFFBFFFFFFFFFFEFFFF7FFF39
:100400000068006C70470000F0B581B0012500283D
:1004100062D0044606462436806B002803D0A06BC9
:10042000C00609D554E000203074E063204600F097
:1004300097F8A06BC0064BD420688168490747D461
:1004400081214900A26B8A43911CA1638268032128
:100450000A40012A05D10268D2070ED1C2681204EF
:100460000BD4C26818239A43A3681343C360890757
:1004700002698A43616811430161C168364A0A40D2
:10048000C260A16A491E4A1E91410903227E92035D
:10049000637EDB031343A27E55031D43E368276994
:1004A0002B430B43B91E4D424D41AD001D433178E6
:1004B00049002943E37E012B14D1002A0FD0A26BFF
:1004C00020231343A363E26B01231343E36309E097
:1004D000A06B10210143A163284601B0F0BD0122A9
:1004E00012041143E269FF23C2339A4202D0236A05
:1004F00019431143C2680A43C260E26A531E072BC4
:1005000024D243690725AB4343612A40436913431F
:100510004361C068114A02408A420AD10025E5635E
:10052000A06B0121014302208143A163284601B051
:10053000F0BDA06B1021014302208143A163E06B59
:1005400001252843E063284601B0F0BD01231B07C5
:100550009A42D6D0DDE7C0461902FEFFE7FF3F838F
:1005600010B586B00021059104910068114A9042AF
:1005700001D006B010BD012042020F4B5C6814434D
:100580005C605C6814400094009A40041A6802435E
:100590001A601A6802400092039103200290022020
:1005A00001900920C006009901A900F0C3F806B027
:1005B00010BDC0460024014014100240F0B581B0C7
:1005C0000D4604464069082801D1082704E0206848
:1005D000C068C00764D10C2700F07EF90646216888
:1005E000086838421CD001204202A36B1343A36366
:1005F000CA681205920F66D1A27E002A63D10A68EA
:10060000120760D58A68520754D4224638324B68A4
:100610000C25AB434B60FF2502351368AB4350E01C
:10062000681C39D0002D1BD10868384221D00868D9
:100630003842D8D1086838421BD008683842D2D135
:100640000868384215D008683842CCD1086838426A
:100650000FD008683842E7D0C5E708683842C2D1F1
:1006600000F03AF9801B2168A842F6D908683842A0
:10067000F3D1342000212154A06B04210143A16354
:10068000032001B0F0BD08683842ACD10868384298
:10069000A9D108683842A6D108683842F3D0A2E749
:1006A000342000212154A06B20210143A1630120AB
:1006B00001B0F0BDA26B20231343A36322463C325A
:1006C000E36B03431360227E0020002A01D001B0B7
:1006D000F0BD0C220A6001B0F0BD000070B5044608
:1006E00000688168022049070FD43421615C012928
:1006F0000BD02546343501262E70607E012805D0AA
:100700002046FFF781FD002800D070BDA06B08498E
:10071000014030020818A0630020E06321681C2219
:100720000A6028708A68042313438B6070BDC0463A
:10073000FEF0FFFFF0B58AB002900D68002D00D1E9
:10074000B9E05E48029A824201D0052000E0042010
:100750001723DB06D2180A23DA410092042A00D3B9
:10076000009000273B463C4608912A460BE0134385
:100770003360079B641C0A681046E040BF1C1B1DC9
:10078000002800D197E001200646A6403240F1D073
:100790000490079303200346BB400397DF43496857
:1007A0000D4605406B1E012B0697059113D801924B
:1007B000029A90683840089BDB68039FBB40034364
:1007C0009360C806C00FA0405368B3431646019A11
:1007D0000343736006E0032D029E039F02D105468A
:1007E000079B1EE0F0680699084008998B68BB409B
:1007F0000343F360022D079B13D11C2018400F21E7
:100800008140E3089B00F3181D6A8D43089E3169FF
:10081000814029431962079B7068029E0325059059
:100820000540BD403068069908402843306005986F
:100830008003800F0899049D9CD0B3490868284321
:1008400008600868284009900C2018400F2181405A
:10085000032325469D43099B1A4EAB598B430099B0
:1008600081401943A9510899154EB5684868C302DB
:100870000FD51543B560F56883020FD49543F56035
:10088000756883030FD4954375603368C00310D532
:100890006DE79543B560F5688302EFD51543F560C4
:1008A00075688303EFD5154375603368C00300D5C1
:1008B0005DE793435CE70AB0F0BDC0460010004816
:1008C0000004014008000140002A02D01822815093
:1008D0007047282281507047674800687047C046BB
:1008E000B0B50246034640335C780220202C17D175
:1008F0001C78012C14D02420587010680268012440
:10090000A2430260220305689543056002680A431A
:100910000260016821430160002018702021597095
:10092000B0BDB0B50246034640335C780220202CAF
:1009300017D11C78012C14D024205870106802683C
:100940000124A24302600F221202056895430902A6
:1009500029430160016821430160002018702021B3
:100960005970B0BDF0B581B0002822D004460546CC
:1009700040356878002804D100202870204600F017
:1009800045F8242068702068026801218A430260CB
:100990000F2212066368934303618368194A134068
:1009A0008360A368E668012E06D1CE0333438360DB
:1009B0000AE0012001B0F0BD2127BF023B43836064
:1009C000022E01D1CB02436043680F4E1E434660A6
:1009D000C3681340C360226963691343A2691202AA
:1009E0001A43C260E269236A1343036002680A4340
:1009F000026000206064202169702063A87001B04B
:100A0000F0BDC046FF7FFFFF00800002B0B586B09A
:100A100000681249884201D006B0B0BD0125A80483
:100A20000F4C216801432160216801400091059528
:100A300003951220029003200490800201900098F8
:100A4000084801A9FFF776FEA805A1680143A16047
:100A5000A16801400091009806B0B0BD0058004068
:100A600014100240000400481B48007802490A683C
:100A7000101808607047C046E804002010B506480A
:100A8000016810220A4302600024204600F006F8A4
:100A900000F026F8204610BD0020024070B5044644
:100AA0007D20C0000C4E317801F0FCFB01460B4864
:100AB000006801F0F7FB00F03BFD0125032C08D88E
:100AC000002806D10025E84321462A4600F01EF8FA
:100AD0007460284670BDC046000000200800002059
:100AE00082B0094801680122114301600168114088
:100AF00001910199110742680A4342604068084029
:100B00000090009802B0704718100240002805D4E9
:100B10000322034693430A4A9A1803E00C22024038
:100B2000064BD2188007C00E8901C9B28140FF234D
:100B300083401068984308431060704714ED00E04C
:100B400000E400E0F0B502685423D15A01242143A7
:100B5000D15217214D0100214155D65A0227374362
:100B6000D752401984600846F0BDF0B589B000281E
:100B70005DD004465520C00025186878002804D1AF
:100B800000202870204600F057F8204624300790B7
:100B9000032008956870206801F0B8F961680029A1
:100BA00023D00022154613462820454365192B54AF
:100BB000AA63EA632A642835EA7001266E705B1C1A
:100BC000DDB2A942F0D80022154613464543651907
:100BD0002D26F600AB55AD192A616A61AA61EA704B
:100BE0006A705B1CDDB2A942F0D8A0680590E0688D
:100BF000069027461037E0CFE269236A2068009507
:100C00000196029703920493059A069B01F073F9EB
:100C1000002507980570012008994870E0690128AF
:100C200002D12046FFF78EFF284609B0F0BD01250E
:100C3000284609B0F0BD000081B00068084988422C
:100C400001D001B070470120C00506490A6802437F
:100C50000A60096801400091009801B07047C046E1
:100C6000005C00401C100240F0B585B0044680785E
:100C7000C0074C4B4FD00120039001071A1F10688A
:100C80000840029006D110680843106010680840C0
:100C90000490049800920191434E3068C00513D42B
:100CA00003980702306838433060FFF715FE0546A9
:100CB0003068384208D1FFF70FFE401B6428F7D98F
:100CC0000325284605B0F0BD03252802354B1968D9
:100CD000014012D06268024091420ED00398000495
:100CE00019681A6802431A601A6882431A60084633
:100CF0002E4A10401860C80745D118682B49084093
:100D00006168014319600298002804D1009A1068B4
:100D10000199884310602068C10709D181070FD469
:100D2000810616D481031CD400254005C9D521E0D5
:100D3000196903229143A2680A431A618107EFD51A
:100D4000032109041A698A43E16811431961810684
:100D5000E8D519691022914322690A431A61810377
:100D6000E2D5196980229143A2690A431A610025DC
:100D70004005A6D51869402188436169014319617E
:100D8000284605B0F0BDFFF7A7FD0646604F054BAE
:100D900018688007B1D4FFF79FFD801BB842F6D9D1
:100DA0008FE7C0462010024000700040FFFCFFFFAC
:100DB000F0B581B0002847D00446534A136801209B
:100DC00003408B4208D213680126B3430B431360E0
:100DD000126832408A4238D1009121688A074B4B11
:100DE00011D54A0707D507221202484B1B68134347
:100DF000464A1360454B1A68F0239A43A36813438D
:100E0000424A1360414BC90722D13F490868012675
:100E10003040009A904205D90868B04308600868DD
:100E2000C00712D12078400706D5072000021968B4
:100E30008143E068084318601A681007810F35483D
:100E4000022912D2044650E00126304601B0F0BD1E
:100E5000616803290DD01A1F02290FD0012912D170
:100E6000126892030646F0D511E0032926D12A4CD8
:100E70003BE01A6B92030646E7D508E01268920140
:100E80000646E2D503E0126892070646DDD51868EB
:100E90000326B04308431860FFF71EFD07461C4DAC
:100EA0001A4B18680C210140606880008142ACD068
:100EB000FFF712FDC01BA842F2D9C6E70321CB03FE
:100EC0001249896A0F240C401449095D94021A40A2
:100ED000240F134D2C5D9A4202D033049A4200E055
:100EE0000D4801F0DFF94443084B18680006000F75
:100EF0000C49085CC4400C48046000263046FFF7EB
:100F0000CDFD304601B0F0BD00200240041002408B
:100F10008813000000127A00006CDC02BA2400087A
:100F2000AA2400089A24000808000020F0B587B021
:100F300004460120002C00D145E204902078C0072F
:100F4000F94E05940CD071680C200140042900D0A2
:100F500090E03068800303D56068002800D120E16C
:100F60002078800721D570680007800F0ED0706848
:100F70000C210140082900D09DE00320C0037168C6
:100F800001400120C003814200D094E03068800716
:100F9000059C03D5E068012800D002E13068F82103
:100FA00088432169C90001433160059C207800070E
:100FB00024D42078400737D42078C00600D4D3E06A
:100FC00005984069411D00D1C2E0012800D030E100
:100FD000706B042101437163706B012101437163E4
:100FE000FFF77AFC0546706B800700D5B4E0FFF789
:100FF00073FC411B03200229F5D9E4E1706AE16921
:10100000002900D181E0012108437062FFF764FCF0
:101010000546706A8007CCD4FFF75EFC401B0228AF
:10102000F7D9032007B0F0BD012003900107F06954
:101030000840029006D1F0690843F061F069084069
:10104000069006980191E14F3868C0054AD403988C
:101050000402386820433860FFF73EFC05463868D4
:1010600020423FD1FFF738FC401B6428F7D903200A
:1010700007B0F0BD71680140082908D10320C00302
:101080007168014001200004814200D161E761687C
:1010900001204704002900D117E1052900D12BE1E7
:1010A000012900D12CE1010432688A4332608104B5
:1010B0003068884327E13068059CE168002936D014
:1010C000012108433060FFF707FC054630688007C0
:1010D00000D563E7FFF700FC401B0228F6D9032088
:1010E00007B0F0BD05988068002800D1B6E005285B
:1010F00000D1C9E0012800D1CAE0306A03998843D1
:101100003062306A04218843C5E00121884370625F
:10111000FFF7E2FB0546706A800700D449E7FFF756
:10112000DBFB401B0228F6D9032007B0F0BD0121EC
:1011300088433060FFF7D0FB05463068800700D455
:1011400033E7FFF7C9FB411B03200229F5D93AE138
:10115000706B042188437063706BF8218843059994
:101160008969C900014371630598007880060BD531
:1011700071680C2001400C2939D1706B800303D5B4
:101180000598006A01280CD10598446A002C00D10A
:10119000E1E070680C210140082905D1012C00D044
:1011A000C4E0049807B0F0BD012002063168049243
:1011B000914331604706FFF78FFB0546022C0BD1A8
:1011C000049C3068384200D1DEE0FFF785FB411B0C
:1011D00003200229F5D9F6E03068384200D1BAE0A0
:1011E000FFF77AFB411B03200229F5D9EBE0716878
:1011F0000140082905D10320C003716801408142E4
:10120000BBD0706B0599096A002900D1A9E00121C2
:101210000A04104370634C04FFF75EFB0546706BD5
:101220002042B1D1FFF758FB411B03200229F6D918
:10123000C9E0706B042101437163706B0121884325
:101240007063FFF749FB0546706B80078CD5FFF78D
:1012500043FB411B03200229F6D9B4E0306A03990D
:1012600088433062306A042188433062584CFFF76B
:1012700033FB0546306A80071DD5FFF72DFB411B68
:101280000320A142F6D99EE0306A04210143316275
:10129000306A0399084330624D4CFFF71DFB054649
:1012A000306A800707D4FFF717FB401BA042F7D92D
:1012B000032007B0F0BD02980028059C00D07BE613
:1012C000F06901998843F06176E6010432688A4347
:1012D00032608004316881433160FFF7FDFA0546D2
:1012E000059C3068384200D13AE6FFF7F5FA411B19
:1012F00003206429F5D966E0810432680A4332602C
:101300000104306808433060FFF7E6FA05463068AC
:10131000384200D024E6FFF7DFFA401B6428F6D9F4
:10132000032007B0F0BDC046001002400320C203F6
:1013300070680240F16A059CA36A9A42049D0DD12F
:101340000F221140236B994208D191040840E16AB1
:101350008842284637D1002007B0F0BD284607B0A4
:10136000F0BD01210A04904370634C04FFF7B4FA06
:101370000546706B204200D106E7FFF7ADFA411B2E
:1013800003200229F5D91EE0F06A0F218843059A4F
:10139000116B0143F1627B20C00371688143D06A05
:1013A0000843916A01437160306820433060FFF761
:1013B00093FA044630683842CDD1FFF78DFA011B0D
:1013C00003200229F6D907B0F0BDC04600700040E6
:1013D00088130000F0B585B000280CD004460546FF
:1013E0005C3541208600606A002807D0002020611B
:1013F0002046143007E0012005B0F0BD6068B0421F
:1014000003D020461C30002101600027A7626878C5
:10141000002804D100202870204600F059F802204E
:101420000495019068702068016840229143039000
:101430000160E168254A012591422A4600D33A46D7
:101440001203ED020D430F2738020290854201D0AE
:101450000025A5626568A768354021239B023B40B3
:101460005B192569019805401D43606901231840F7
:101470002843FC36A7693E400643E069382505400D
:101480003543206A802606402E435803A56A05404E
:101490003543039E3560380C042505400298014011
:1014A0000A432A43606A102101401143606B0822FD
:1014B00002400A437260D802F1698143F161002061
:1014C000206604994B7005B0F0BDC04601070000CE
:1014D00080B586B000681349884201D006B080BD4F
:1014E00001208103104A93680B43936093680B407B
:1014F0000193019980041168014311601168014052
:101500000091002005900321049103900220029095
:101510000720400301900098044801A9FFF70AF949
:1015200006B080BD0038004014100240000400489E
:10153000401E010E01D0012070470749074A506044
:10154000074803680B4003218907591801600020F0
:101550009060072111607047FFFFFF0010E000E07E
:1015600020ED00E070B53C22825C012A01D102200E
:1015700070BD03463C3300221A703F231B02CC6827
:101580009C430F239D028E68AE432643DB024C68CA
:101590009C43344307231B030D689D4325430323CA
:1015A0005B030C699C432C434B6923430124A40334
:1015B000A343C969194300684164104670BD000027
:1015C00010B53C22825C012A01D1022010BD0246E6
:1015D0003C3202235370006843687024A3430C68B4
:1015E0001C4383684460454CA04207DC0124A407E7
:1015F000A04209D0404CA04206D00AE0434CA04291
:1016000002D0B84CA04204D18024A34349681943B6
:101610008160002010700121517010BD70B500284C
:1016200029D0044605463C356878002804D10020BE
:101630002870204600F070F80220687021680E685B
:1016400001208307994205D0A64A914202D02A4A36
:10165000914219D170229643A2683243274EB1427B
:1016600016DD274B994208DC9E4B994218D0274B38
:10167000994215D03EE0012070BD224B99420FD017
:10168000214B99420CD035E032461C4EB142E8DC89
:10169000994205D0184B994202D01D4B994229D14D
:1016A00003231B029A432369134322463E328026BA
:1016B000B343A6691E430E60E368CB6263688B6226
:1016C000144BCB180A26F341072B06D806469E403A
:1016D000E1231E4201D063690B63486110721070F0
:1016E00050709070D070107150719071D07168709E
:1016F000002070BD1346D8E700040040FF2B0140D6
:10170000FF430140004801400044014000400140C7
:101710000020004000D4FEBF81B0006871498842BB
:1017200001D001B070470120C00205490A68024398
:101730000A60096801400091009801B07047C046F6
:1017400018100240F0B53C22825C012A01D102202F
:10175000F0BD02463C3202235370504E3346773B75
:101760000468A0681840A0600D6800234F2D1EDC9F
:101770001F2D35DD202D37D0302D35D0402D00D018
:1017800086E0206A256A0126B5432562A569F02610
:10179000B543CE6836012E43A6610A25A8434968A1
:1017A00001432162A06847210143302069E06F2D89
:1017B00026DD01204703BD4240D000038542184684
:1017C0001AD0702D64D1A06830404D688E68C96809
:1017D0002E43090231430143A160A068772139E01B
:1017E000002D01D0102D53D1A068702188430543EE
:1017F00007202843A0601846137001215170F0BDE6
:10180000502D29D0602D43D11020C043256A0540BA
:1018100025620F252D03A669AE43CD682D03354300
:10182000266AA561A025AE434968090131432162BA
:10183000A16867250D430540A56024E0A5683540F3
:101840004E688F68C9683743090239432943A1604C
:101850008003A168014315E0206A256A0126B5438B
:101860002562A569F026B543CE6836012E43A661F0
:101870000A25A843496801432162A0685721014312
:1018800020208143A1601846137001215170F0BDE2
:101890000120137001215170F0BDC046FF00FFFF11
:1018A00080B586B00068EA49884201D006B080BDA4
:1018B000012041040C4A13680B43136012680A406C
:1018C00000920221059100220492039202910002EB
:1018D00001900920C006009901A9FEF72BFF06B070
:1018E00080BDC046002C014014100240F0B583B00A
:1018F0003C23C35C012B02D1022003B0F0BD07469C
:101900003C370223DA41032A39D802977A44127904
:101910005200974401394C610268146A01208443E3
:101920001462D04C14190A25EC41156A9D438E6847
:101930002E43536800930B6801939569072C00D9D7
:10194000ECE00346A340E1273B4200D1EAE00C2350
:101950009E43CB680427BB433343029F072C00D927
:10196000E5E0A040E124204200D1E0E003200002B5
:10197000009E86434C69886934430443D8E00120C3
:101980000021397003B0F0BD0268106A102398433B
:101990001062106A202398438B681B010343506830
:1019A0000D689469E34EB24250D01E4655E00127BF
:1019B0003B020268106A984310627802146A8443FA
:1019C00088680302234350680C680194D569D94E96
:1019D000B24256D01E465DE0012633030268106A0B
:1019E00098431062D04813180A20C341156A506802
:1019F0008C680F680197D769072B00D9B4E0009471
:101A000034469C40E1231C4200D1AFE0B30398432D
:101A10004B699B010343009C10461C3053607323A9
:101A20001B029F43019B1B023B43D3614B68136422
:101A300073039D4323032B431362F302D4691C43B6
:101A4000D461B302D4699C43D4614CE0C026B34353
:101A5000CE6836014027BE431E43B34BD3180A2736
:101A6000FB41072B29D801279F40E1231F4224D0A7
:101A700003239B0298434B698F691F43BB000343B9
:101A80001CE00326B602B343394CFF3CCE68360255
:101A900026401E43A44BD3180A24E341072B26D823
:101AA0009F40E1231F4222D003231B0398434B692D
:101AB0008C691C43230103431AE003461046183087
:101AC000536073231B029C432B02234393614B6897
:101AD000936316620123DC029569254395619B029D
:101AE00094699C43946109690902029F34E00346AA
:101AF000029F10461C30536073239D43019B1D437E
:101B0000D5614B68D3631662D36908241C43D46142
:101B1000D3690424A343D36109691DE03346072C2C
:101B200005D81EE73346029F072C00D819E7009C12
:101B30001046183054607324A543019C25439561D9
:101B40004C6854631362936908241C43946193693D
:101B50000424A3439361096902680A4302600020D8
:101B60000021397003B0F0BD034655E7034652E744
:101B7000FFFBFFFF70B5002829D0044605463C3521
:101B80006878002804D100202870204600F06CF806
:101B90000220687021680E6801208307994205D0F1
:101BA000644A914202D0644A914219D1702296430C
:101BB000A26832435D4EB14216DD264B994208DCE5
:101BC0005C4B994218D05A4B994215D03EE0012007
:101BD00070BD214B99420FD0204B99420CD035E07B
:101BE0003246524EB142E8DC994205D0524B9942FE
:101BF00002D01B4B994229D103231B029A4323692C
:101C0000134322463E328026B343A6691E430E602C
:101C1000E368CB6263688B62434BCB180A26F341BF
:101C2000072B06D806469E40E1231E4201D0636979
:101C30000B6348611072107050709070D07010710A
:101C400050719071D0716870002070BD1346D8E754
:101C5000002C0140FF430140004801400044014086
:101C60000020004000D4FEBF7047000002463E3214
:101C7000002908D008290CD0042910D1531C1B7846
:101C8000012B0AD10FE01378012B06D10223137028
:101C900013E0931C1B78012B05D001207047D31C47
:101CA0001B78012BF9D10223082903D0042903D181
:101CB000537002E0937000E0D3701F2211400122A4
:101CC00013468B400068016A99430162016A194317
:101CD0000162154941180A23D941072908D813463A
:101CE0008B40E1210B4203D0D103436C0B4343648F
:101CF0000E49884206DC9107884209D00E49884285
:101D000006D00CE00A49884202D00A49884206D12E
:101D1000816807230B40062B01D100207047016822
:101D2000114301600020704700D4FEBFFF2B01402B
:101D300000400140002C014000040040F0B581B09B
:101D400000286DD0044605463C352878002804D18B
:101D500000206870204600F067F802202870206894
:101D6000012707606268A3681343226966690095CA
:101D7000A569E16952041A4332432A430A43616A5E
:101D8000A36A1143194302680A430260217B0129B7
:101D900003D1390402680A430260226B616BA36BB2
:101DA00011430C461C43E4430461816203620F2328
:101DB000114619404C1EA141140F661EB441E401A6
:101DC0006118F0241440661EB441640009191C0215
:101DD0001440661EB441A40009191C031440661E79
:101DE000B441E40009191C041440661EB4412401E6
:101DF00009191C051440661EB441640109191B062B
:101E000013405A1E93419A010A4302634168032218
:101E100091434160826000980770002001B0F0BDDE
:101E2000012001B0F0BD0000F0B589B000682A497A
:101E3000884201D009B0F0BD01200106034603909D
:101E4000264802680A43026002680A400492049924
:101E5000590402680A43026002680A400492049925
:101E6000990402680A4302600068084004900498DC
:101E700003270897002607960696022002900590F1
:101E8000442004900920C50604AC28462146FEF7EC
:101E900051FC08970796069612200190059088201D
:101EA000049028462146FEF745FC089707960696BB
:101EB000029D05950398049009482146FEF73AFCD7
:101EC00008970796069601980590049504482146C0
:101ED000FEF730FC09B0F0BD004002401410024093
:101EE00000040048FEE7FEE77047704780B5FEF744
:101EF000BBFD80BD704740220121815200218152EB
:101F00004030818001820846704700004021425ADB
:101F1000024B1340435200207047C0467F400000F0
:101F20009EB0FEF7ABFD0026079609960B960A9623
:101F300008960696059601200C9032210491079090
:101F400009901696159614961396129610210A91DA
:101F50000891109601050F91C0030E9002270D976E
:101F600004A8FEF7E3FF002803D0EFF3108072B659
:101F7000FEE71D961C961B9707241A941AA80125A4
:101F80002946FEF715FF002803D0EFF3108072B644
:101F9000FEE7039417966C04119411A8FEF764FEF3
:101FA000002803D0EFF3108072B6FEE70896E9042C
:101FB000AB4802680A43026002680A401192119914
:101FC0000168214301600168214011911199A90420
:101FD00002680A4302600068084011901198A14805
:101FE000A14C21463246FEF76FFC079604A870C04C
:101FF00004AC9C482146FEF79DFB06960920019003
:102000000295450405950620049096482146FEF762
:1020100091FB06960595029D04950198C006214600
:10202000FEF788FB91489249924A026041608660BF
:10203000C560066146618661C6610662FEF792FC74
:10204000002803D0EFF3108072B6FEE78748002126
:10205000FEF746FC002803D0EFF3108072B6FEE7CF
:10206000824800263146FEF75CFC002803D0EFF3DF
:10207000108072B6FEE780480825066246628662D6
:102080000399C162066345637C494122940022465C
:10209000FC3291239B000393BC3352C00360466023
:1020A0008660C26005610C38FFF794F9002803D000
:1020B000EFF3108072B6FEE7019500947048A021FE
:1020C0000673704A029B5D03036146612C4685617D
:1020D000C16106624662866219061D0724C001605E
:1020E0000838014620310E735F49A731039A026315
:1020F00046638163FFF722FE002803D0EFF31080D0
:1021000072B6FEE7039460488661C66106620761A5
:102110005E490160019941608760FEF726FD002855
:1021200003D0EFF3108072B6FEE7242158484654DE
:10213000029F876206620421564A009CBD3444C057
:10214000066046608760C160066144610838FEF73A
:102150005BF9002803D0EFF3108072B6FEE7069516
:1021600004973C0305944A4804A9FEF7A5F8002803
:1021700003D0EFF3108072B6FEE747484749484A5C
:1021800044C0066041608660C66006611D961C966C
:102190001B96199618960A960838FFF73FFA0028FA
:1021A00003D0EFF3108072B6FEE71A943A481AA9EA
:1021B000FFF7C8FA002803D0EFF3108072B6FEE7ED
:1021C0003548FFF7D7FC002803D0EFF3108072B634
:1021D000FEE7314818A9FFF7F3F9002803D0EFF321
:1021E000108072B6FEE71296602011901396149636
:1021F000159616961796284811A93246FFF776FBD2
:10220000002803D0EFF3108072B6FEE70896079619
:102210000696059604960B96039809901E4D04A900
:102220002846FFF79FF9002803D0EFF3108072B61D
:10223000FEE72846FFF734FB154E3046FEF74EFA10
:1022400000212846FFF712FD074CE11D3046FEF73E
:10225000B5F93046FEF7D4F8296880B24863F4E750
:102260001410024000080048E1030000B000002004
:102270005D3E302000580040F80300200038004048
:10228000A40400200040024004010020005C004043
:1022900070000020002401405C040020FFFF0000CB
:1022A000002C014043088B421AD3002203098B42C1
:1022B00079D3030A8B425ED3030B8B4242D3030CC8
:1022C0008B4227D30902FF2212BA030C8B4202D39E
:1022D0001212090203D0030B8B4233D31AE0D3E06E
:1022E000411A8041401C704703460B4371D4430898
:1022F0008B42F5D3002203098B4254D3030A8B424D
:1023000039D3030B8B421DD3030C8B4202D394466B
:102310006EE0090AC30B8B4201D3CB03C01A5241B2
:10232000830B8B4201D38B03C01A5241430B8B4268
:1023300001D34B03C01A5241030B8B4201D30B0351
:10234000C01A5241C30A8B4201D3CB02C01A524178
:10235000830A8B4201D38B02C01A5241430A8B423B
:1023600001D34B02C01A5241030A8B4201D30B0224
:10237000C01A5241CDD2C3098B4201D3CB01C01A3E
:10238000524183098B4201D38B01C01A5241430948
:102390008B4201D34B01C01A524103098B4201D336
:1023A0000B01C01A5241C3088B4201D3CB00C01AA3
:1023B000524183088B4201D38B00C01A524143081B
:1023C0008B4201D34B00C01A5241411A52411000B6
:1023D0007047CA0F00D04942031000D34042534017
:1023E00000229C4603098B422DD3030A8B4212D351
:1023F0008901FC2212BA030A8B420CD38901921183
:102400008B4208D3890192118B4204D3890137D0C2
:10241000921100E08909C3098B4201D3CB01C01A94
:10242000524183098B4201D38B01C01A52414309A7
:102430008B4201D34B01C01A524103098B4201D395
:102440000B01C01A5241C3088B4201D3CB00C01A02
:10245000524183088B4201D38B00C01A5241D9D21A
:1024600043088B4201D34B00C01A5241411A00D29B
:1024700001465241104663465B1000D3404270470C
:1024800063465B1000D3404201B50021004201D0F9
:10249000C9430846C046C04602BD00000000000017
:1024A00000000102030406070809020304050607E9
:1024B00008090A0B0C0D0E0F10100102030405068B
:1024C0000708090A0B0C0D0E0F100000F02400087D
:1024D0000000002010000000040100080025000892
:1024E00010000020E00A00002001000800000000A9
:1024F000010000000400000000127A00000000004B
:04000005080000C12E
:00000001FF
